{
  "contractName": "bankOfArtiiz",
  "abi": [
    {
      "inputs": [
        {
          "internalType": "contract Token",
          "name": "token",
          "type": "address"
        }
      ],
      "stateMutability": "nonpayable",
      "type": "constructor"
    },
    {
      "anonymous": false,
      "inputs": [
        {
          "indexed": true,
          "internalType": "address",
          "name": "user",
          "type": "address"
        },
        {
          "indexed": false,
          "internalType": "uint256",
          "name": "etherAmount",
          "type": "uint256"
        },
        {
          "indexed": false,
          "internalType": "uint256",
          "name": "depositTime",
          "type": "uint256"
        }
      ],
      "name": "Deposit",
      "type": "event"
    },
    {
      "anonymous": false,
      "inputs": [
        {
          "indexed": true,
          "internalType": "address",
          "name": "user",
          "type": "address"
        },
        {
          "indexed": false,
          "internalType": "uint256",
          "name": "etherAmount",
          "type": "uint256"
        },
        {
          "indexed": false,
          "internalType": "uint256",
          "name": "withdrawalTime",
          "type": "uint256"
        },
        {
          "indexed": false,
          "internalType": "uint256",
          "name": "interestPaidOut",
          "type": "uint256"
        }
      ],
      "name": "Withdraw",
      "type": "event"
    },
    {
      "inputs": [
        {
          "internalType": "address",
          "name": "",
          "type": "address"
        }
      ],
      "name": "currentlyDeposited",
      "outputs": [
        {
          "internalType": "bool",
          "name": "",
          "type": "bool"
        }
      ],
      "stateMutability": "view",
      "type": "function",
      "constant": true
    },
    {
      "inputs": [
        {
          "internalType": "address",
          "name": "",
          "type": "address"
        }
      ],
      "name": "depositStartTime",
      "outputs": [
        {
          "internalType": "uint256",
          "name": "",
          "type": "uint256"
        }
      ],
      "stateMutability": "view",
      "type": "function",
      "constant": true
    },
    {
      "inputs": [
        {
          "internalType": "address",
          "name": "",
          "type": "address"
        }
      ],
      "name": "depositedEtherBalance",
      "outputs": [
        {
          "internalType": "uint256",
          "name": "",
          "type": "uint256"
        }
      ],
      "stateMutability": "view",
      "type": "function",
      "constant": true
    },
    {
      "inputs": [],
      "name": "deposit",
      "outputs": [],
      "stateMutability": "payable",
      "type": "function",
      "payable": true
    },
    {
      "inputs": [],
      "name": "withdraw",
      "outputs": [],
      "stateMutability": "nonpayable",
      "type": "function"
    },
    {
      "inputs": [],
      "name": "borrow",
      "outputs": [],
      "stateMutability": "payable",
      "type": "function",
      "payable": true
    },
    {
      "inputs": [],
      "name": "payOff",
      "outputs": [],
      "stateMutability": "nonpayable",
      "type": "function"
    }
  ],
  "bytecode": "0x608060405234801561001057600080fd5b506040516109663803806109668339818101604052602081101561003357600080fd5b8101908080519060200190929190505050806000806101000a81548173ffffffffffffffffffffffffffffffffffffffff021916908373ffffffffffffffffffffffffffffffffffffffff160217905550506108d2806100946000396000f3fe6080604052600436106100705760003560e01c80635b3118f91161004e5780635b3118f91461010a5780639d06d4131461016f578063d0e30db0146101d4578063e68d3569146101de57610070565b8063284b5def146100755780633ccfd60b146100dc5780633fac68d5146100f3575b600080fd5b34801561008157600080fd5b506100c46004803603602081101561009857600080fd5b81019080803573ffffffffffffffffffffffffffffffffffffffff1690602001909291905050506101e8565b60405180821515815260200191505060405180910390f35b3480156100e857600080fd5b506100f1610208565b005b3480156100ff57600080fd5b5061010861055a565b005b34801561011657600080fd5b506101596004803603602081101561012d57600080fd5b81019080803573ffffffffffffffffffffffffffffffffffffffff16906020019092919050505061055c565b6040518082815260200191505060405180910390f35b34801561017b57600080fd5b506101be6004803603602081101561019257600080fd5b81019080803573ffffffffffffffffffffffffffffffffffffffff169060200190929190505050610574565b6040518082815260200191505060405180910390f35b6101dc61058c565b005b6101e66107e8565b005b60036020528060005260406000206000915054906101000a900460ff1681565b60003390506000600160008373ffffffffffffffffffffffffffffffffffffffff1673ffffffffffffffffffffffffffffffffffffffff168152602001908152602001600020549050600042905060011515600360008573ffffffffffffffffffffffffffffffffffffffff1673ffffffffffffffffffffffffffffffffffffffff16815260200190815260200160002060009054906101000a900460ff161515146102ff576040517f08c379a000000000000000000000000000000000000000000000000000000000815260040180806020018281038252603c815260200180610861603c913960400191505060405180910390fd5b6000600260008573ffffffffffffffffffffffffffffffffffffffff1673ffffffffffffffffffffffffffffffffffffffff16815260200190815260200160002054820390506000662386f26fc10000848161035757fe5b046301e33731029050600082820290503373ffffffffffffffffffffffffffffffffffffffff166108fc869081150290604051600060405180830381858888f193505050501580156103ad573d6000803e3d6000fd5b5060008054906101000a900473ffffffffffffffffffffffffffffffffffffffff1673ffffffffffffffffffffffffffffffffffffffff166340c10f1987836040518363ffffffff1660e01b8152600401808373ffffffffffffffffffffffffffffffffffffffff16815260200182815260200192505050600060405180830381600087803b15801561043f57600080fd5b505af1158015610453573d6000803e3d6000fd5b505050506000600160008873ffffffffffffffffffffffffffffffffffffffff1673ffffffffffffffffffffffffffffffffffffffff168152602001908152602001600020819055506000600360008873ffffffffffffffffffffffffffffffffffffffff1673ffffffffffffffffffffffffffffffffffffffff16815260200190815260200160002060006101000a81548160ff0219169083151502179055508573ffffffffffffffffffffffffffffffffffffffff167f02f25270a4d87bea75db541cdfe559334a275b4a233520ed6c0a2429667cca9486868460405180848152602001838152602001828152602001935050505060405180910390a2505050505050565b565b60016020528060005260406000206000915090505481565b60026020528060005260406000206000915090505481565b60003390506000349050600042905060001515600360008573ffffffffffffffffffffffffffffffffffffffff1673ffffffffffffffffffffffffffffffffffffffff16815260200190815260200160002060009054906101000a900460ff16151514610644576040517f08c379a000000000000000000000000000000000000000000000000000000000815260040180806020018281038252603481526020018061082d6034913960400191505060405180910390fd5b662386f26fc100008210156106a4576040517f08c379a00000000000000000000000000000000000000000000000000000000081526004018080602001828103825260428152602001806107eb6042913960600191505060405180910390fd5b81600160008573ffffffffffffffffffffffffffffffffffffffff1673ffffffffffffffffffffffffffffffffffffffff1681526020019081526020016000206000828254019250508190555080600260008573ffffffffffffffffffffffffffffffffffffffff1673ffffffffffffffffffffffffffffffffffffffff168152602001908152602001600020819055506001600360008573ffffffffffffffffffffffffffffffffffffffff1673ffffffffffffffffffffffffffffffffffffffff16815260200190815260200160002060006101000a81548160ff0219169083151502179055508273ffffffffffffffffffffffffffffffffffffffff167f90890809c654f11d6e72a28fa60149770a0d11ec6c92319d6ceb2bb0a4ea1a158383604051808381526020018281526020019250505060405180910390a2505050565b56fe546865206465706f736974656420616d6f756e742069732062656c6f772074686520696e766573746d656e74206d696e696d756d206f6620302e3031204574686572506c6561736520776974686472617720616c6c20696e7665737465642066756e6473206265666f7265206465706f736974696e67506c65617365206465706f7369742066756e647320746f20696e76657374206265666f726520617474656d7074696e6720746f207769746864726177a2646970667358221220baa1182610b8c9b18b300515305b1e537c999942d2e71e80e7d8617e2218ed0964736f6c63430007060033",
  "immutableReferences": {},
  "source": "// SPDX-License-Identifier: MIT\r\npragma solidity >=0.6.0 <0.8.0;\r\n\r\nimport \"./Token.sol\";\r\n\r\ncontract bankOfArtiiz {\r\n    Token private _token;\r\n\r\n    // Mappings\r\n    mapping(address => uint256) public depositedEtherBalance;\r\n    mapping(address => uint256) public depositStartTime;\r\n    mapping(address => bool) public currentlyDeposited;\r\n\r\n    // Events\r\n    event Deposit(\r\n        address indexed user,\r\n        uint256 etherAmount,\r\n        uint256 depositTime\r\n    );\r\n\r\n    event Withdraw(\r\n        address indexed user,\r\n        uint256 etherAmount,\r\n        uint256 withdrawalTime,\r\n        uint256 interestPaidOut\r\n    );\r\n\r\n    // pass as constructor argument deployed Token contract\r\n    constructor(Token token) {\r\n        _token = token;\r\n    }\r\n\r\n    function deposit() public payable {\r\n        // Local Variables\r\n        address userAddress = msg.sender;\r\n        uint256 amountDeposited = msg.value;\r\n        uint256 depositTime = block.timestamp;\r\n\r\n        // Checking that the amount is greater than 0.01 ETH and that the user is not currently invested\r\n        // Could alternatively use an if/else loop around the below code for a more human understandable code fragment\r\n        require(\r\n            currentlyDeposited[userAddress] == false,\r\n            \"Please withdraw all invested funds before depositing\"\r\n            // TODO: Improve on this to allow incremental deposits with a reset of the deposit start time to the latest deposit\r\n        );\r\n        require(\r\n            amountDeposited >= 0.01 ether,\r\n            \"The deposited amount is below the investment minimum of 0.01 Ether\"\r\n        );\r\n\r\n        // Adding to map dictionary to increment amount stored in bank\r\n        depositedEtherBalance[userAddress] += amountDeposited;\r\n\r\n        // Set deposit start time to that of the latest deposit\r\n        depositStartTime[userAddress] = depositTime;\r\n\r\n        // Set that the user is currently invested\r\n        currentlyDeposited[userAddress] = true;\r\n\r\n        // Triggering event\r\n        emit Deposit(userAddress, amountDeposited, depositTime);\r\n    }\r\n\r\n    function withdraw() public {\r\n        // Local Variables\r\n        address userAddress = msg.sender;\r\n        uint256 amountWithdrawn = depositedEtherBalance[userAddress];\r\n        uint256 withdrawalTime = block.timestamp;\r\n\r\n        // Checking that the user is currently invested\r\n        // Could alternatively use an if/else loop around the below code for a more human understandable code fragment\r\n        require(\r\n            currentlyDeposited[userAddress] == true,\r\n            \"Please deposit funds to invest before attempting to withdraw\"\r\n            // TODO: Improve on this to allow smaller withdrawals at a time\r\n        );\r\n\r\n        // Calculate Interest Accrued\r\n        uint256 timeInvested = withdrawalTime - depositStartTime[userAddress];\r\n\r\n        // 31668017 = interest per second for (10% APY) for 0.01 ETH Minimum. So we split up the investment by 0.01 ETH to get per second rate\r\n        uint256 interestPerSecond = 31668017 * (amountWithdrawn / 1e16);\r\n        uint256 interestEarned = interestPerSecond * timeInvested;\r\n\r\n        // Send Ether to user\r\n        msg.sender.transfer(amountWithdrawn);\r\n\r\n        // Mint tokens and send as interest to user\r\n        _token.mint(userAddress, interestEarned);\r\n\r\n        // Clear data about how much is invested\r\n        depositedEtherBalance[userAddress] = 0;\r\n        currentlyDeposited[userAddress] = false;\r\n\r\n        // Triggering event\r\n        Withdraw(userAddress, amountWithdrawn, withdrawalTime, interestEarned);\r\n    }\r\n\r\n    function borrow() public payable {\r\n        //check if collateral is >= than 0.01 ETH\r\n        //check if user doesn't have active loan\r\n        //add msg.value to ether collateral\r\n        //calc tokens amount to mint, 50% of msg.value\r\n        //mint&send tokens to user\r\n        //activate borrower's loan status\r\n        //emit event\r\n    }\r\n\r\n    function payOff() public {\r\n        //check if loan is active\r\n        //transfer tokens from user back to the contract\r\n        //calc fee\r\n        //send user's collateral minus fee\r\n        //reset borrower's data\r\n        //emit event\r\n    }\r\n}\r\n",
  "sourcePath": "/Users/artiiz/Git/defi_bank/src/contracts/bankOfArtiiz.sol",
  "compiler": {
    "name": "solc",
    "version": "0.7.6+commit.7338295f.Emscripten.clang"
  },
  "schemaVersion": "3.2.3",
  "updatedAt": "2021-05-19T11:58:07.462Z",
  "networkType": "ethereum",
  "devdoc": {
    "kind": "dev",
    "methods": {},
    "version": 1
  },
  "userdoc": {
    "kind": "user",
    "methods": {},
    "version": 1
  }
}