{
  "contractName": "bankOfArtiiz",
  "abi": [
    {
      "inputs": [
        {
          "internalType": "contract Token",
          "name": "token",
          "type": "address"
        }
      ],
      "stateMutability": "nonpayable",
      "type": "constructor"
    },
    {
      "anonymous": false,
      "inputs": [
        {
          "indexed": true,
          "internalType": "address",
          "name": "user",
          "type": "address"
        },
        {
          "indexed": false,
          "internalType": "uint256",
          "name": "etherAmount",
          "type": "uint256"
        },
        {
          "indexed": false,
          "internalType": "uint256",
          "name": "depositTime",
          "type": "uint256"
        }
      ],
      "name": "Deposit",
      "type": "event"
    },
    {
      "anonymous": false,
      "inputs": [
        {
          "indexed": true,
          "internalType": "address",
          "name": "user",
          "type": "address"
        },
        {
          "indexed": false,
          "internalType": "uint256",
          "name": "etherAmount",
          "type": "uint256"
        },
        {
          "indexed": false,
          "internalType": "uint256",
          "name": "withdrawalTime",
          "type": "uint256"
        },
        {
          "indexed": false,
          "internalType": "uint256",
          "name": "interestPaidOut",
          "type": "uint256"
        }
      ],
      "name": "Withdraw",
      "type": "event"
    },
    {
      "inputs": [
        {
          "internalType": "address",
          "name": "",
          "type": "address"
        }
      ],
      "name": "currentlyDeposited",
      "outputs": [
        {
          "internalType": "bool",
          "name": "",
          "type": "bool"
        }
      ],
      "stateMutability": "view",
      "type": "function",
      "constant": true
    },
    {
      "inputs": [
        {
          "internalType": "address",
          "name": "",
          "type": "address"
        }
      ],
      "name": "depositStartTime",
      "outputs": [
        {
          "internalType": "uint256",
          "name": "",
          "type": "uint256"
        }
      ],
      "stateMutability": "view",
      "type": "function",
      "constant": true
    },
    {
      "inputs": [
        {
          "internalType": "address",
          "name": "",
          "type": "address"
        }
      ],
      "name": "depositedEtherBalance",
      "outputs": [
        {
          "internalType": "uint256",
          "name": "",
          "type": "uint256"
        }
      ],
      "stateMutability": "view",
      "type": "function",
      "constant": true
    },
    {
      "inputs": [
        {
          "internalType": "address",
          "name": "userAddress",
          "type": "address"
        }
      ],
      "name": "getFundsInvested",
      "outputs": [
        {
          "internalType": "uint256",
          "name": "",
          "type": "uint256"
        }
      ],
      "stateMutability": "view",
      "type": "function",
      "constant": true
    },
    {
      "inputs": [
        {
          "internalType": "address",
          "name": "userAddress",
          "type": "address"
        }
      ],
      "name": "getCurrentlyAccruedInterest",
      "outputs": [
        {
          "internalType": "uint256",
          "name": "",
          "type": "uint256"
        }
      ],
      "stateMutability": "view",
      "type": "function",
      "constant": true
    },
    {
      "inputs": [],
      "name": "deposit",
      "outputs": [],
      "stateMutability": "payable",
      "type": "function",
      "payable": true
    },
    {
      "inputs": [],
      "name": "withdraw",
      "outputs": [],
      "stateMutability": "nonpayable",
      "type": "function"
    },
    {
      "inputs": [],
      "name": "borrow",
      "outputs": [],
      "stateMutability": "payable",
      "type": "function",
      "payable": true
    },
    {
      "inputs": [],
      "name": "payOff",
      "outputs": [],
      "stateMutability": "nonpayable",
      "type": "function"
    }
  ],
  "bytecode": "0x608060405234801561001057600080fd5b50604051610b98380380610b988339818101604052602081101561003357600080fd5b8101908080519060200190929190505050806000806101000a81548173ffffffffffffffffffffffffffffffffffffffff021916908373ffffffffffffffffffffffffffffffffffffffff16021790555050610b04806100946000396000f3fe6080604052600436106100865760003560e01c80639d06d413116100595780639d06d41314610185578063d0e30db0146101ea578063e038d673146101f4578063e68d356914610259578063fe680f651461026357610086565b8063284b5def1461008b5780633ccfd60b146100f25780633fac68d5146101095780635b3118f914610120575b600080fd5b34801561009757600080fd5b506100da600480360360208110156100ae57600080fd5b81019080803573ffffffffffffffffffffffffffffffffffffffff1690602001909291905050506102c8565b60405180821515815260200191505060405180910390f35b3480156100fe57600080fd5b506101076102e8565b005b34801561011557600080fd5b5061011e61067f565b005b34801561012c57600080fd5b5061016f6004803603602081101561014357600080fd5b81019080803573ffffffffffffffffffffffffffffffffffffffff169060200190929190505050610681565b6040518082815260200191505060405180910390f35b34801561019157600080fd5b506101d4600480360360208110156101a857600080fd5b81019080803573ffffffffffffffffffffffffffffffffffffffff169060200190929190505050610699565b6040518082815260200191505060405180910390f35b6101f26106b1565b005b34801561020057600080fd5b506102436004803603602081101561021757600080fd5b81019080803573ffffffffffffffffffffffffffffffffffffffff16906020019092919050505061090d565b6040518082815260200191505060405180910390f35b6102616109cc565b005b34801561026f57600080fd5b506102b26004803603602081101561028657600080fd5b81019080803573ffffffffffffffffffffffffffffffffffffffff1690602001909291905050506109ce565b6040518082815260200191505060405180910390f35b60036020528060005260406000206000915054906101000a900460ff1681565b60003390506000600160008373ffffffffffffffffffffffffffffffffffffffff1673ffffffffffffffffffffffffffffffffffffffff168152602001908152602001600020549050600042905060011515600360008573ffffffffffffffffffffffffffffffffffffffff1673ffffffffffffffffffffffffffffffffffffffff16815260200190815260200160002060009054906101000a900460ff161515146103df576040517f08c379a000000000000000000000000000000000000000000000000000000000815260040180806020018281038252603c815260200180610a93603c913960400191505060405180910390fd5b6000600260008573ffffffffffffffffffffffffffffffffffffffff1673ffffffffffffffffffffffffffffffffffffffff16815260200190815260200160002054820390506000662386f26fc10000848161043757fe5b046301e33731029050600082820290503373ffffffffffffffffffffffffffffffffffffffff166108fc869081150290604051600060405180830381858888f1935050505015801561048d573d6000803e3d6000fd5b5060008054906101000a900473ffffffffffffffffffffffffffffffffffffffff1673ffffffffffffffffffffffffffffffffffffffff166340c10f1987836040518363ffffffff1660e01b8152600401808373ffffffffffffffffffffffffffffffffffffffff16815260200182815260200192505050600060405180830381600087803b15801561051f57600080fd5b505af1158015610533573d6000803e3d6000fd5b505050506000600160008873ffffffffffffffffffffffffffffffffffffffff1673ffffffffffffffffffffffffffffffffffffffff168152602001908152602001600020819055506000600260008873ffffffffffffffffffffffffffffffffffffffff1673ffffffffffffffffffffffffffffffffffffffff168152602001908152602001600020819055506000600360008873ffffffffffffffffffffffffffffffffffffffff1673ffffffffffffffffffffffffffffffffffffffff16815260200190815260200160002060006101000a81548160ff0219169083151502179055508573ffffffffffffffffffffffffffffffffffffffff167f02f25270a4d87bea75db541cdfe559334a275b4a233520ed6c0a2429667cca9486868460405180848152602001838152602001828152602001935050505060405180910390a2505050505050565b565b60016020528060005260406000206000915090505481565b60026020528060005260406000206000915090505481565b60003390506000349050600042905060001515600360008573ffffffffffffffffffffffffffffffffffffffff1673ffffffffffffffffffffffffffffffffffffffff16815260200190815260200160002060009054906101000a900460ff16151514610769576040517f08c379a0000000000000000000000000000000000000000000000000000000008152600401808060200182810382526034815260200180610a5f6034913960400191505060405180910390fd5b662386f26fc100008210156107c9576040517f08c379a0000000000000000000000000000000000000000000000000000000008152600401808060200182810382526042815260200180610a1d6042913960600191505060405180910390fd5b81600160008573ffffffffffffffffffffffffffffffffffffffff1673ffffffffffffffffffffffffffffffffffffffff1681526020019081526020016000206000828254019250508190555080600260008573ffffffffffffffffffffffffffffffffffffffff1673ffffffffffffffffffffffffffffffffffffffff168152602001908152602001600020819055506001600360008573ffffffffffffffffffffffffffffffffffffffff1673ffffffffffffffffffffffffffffffffffffffff16815260200190815260200160002060006101000a81548160ff0219169083151502179055508273ffffffffffffffffffffffffffffffffffffffff167f90890809c654f11d6e72a28fa60149770a0d11ec6c92319d6ceb2bb0a4ea1a158383604051808381526020018281526020019250505060405180910390a2505050565b600080600160008473ffffffffffffffffffffffffffffffffffffffff1673ffffffffffffffffffffffffffffffffffffffff16815260200190815260200160002054905060004290506000600260008673ffffffffffffffffffffffffffffffffffffffff1673ffffffffffffffffffffffffffffffffffffffff16815260200190815260200160002054820390506000662386f26fc1000084816109af57fe5b046301e33731029050600082820290508095505050505050919050565b565b600080600160008473ffffffffffffffffffffffffffffffffffffffff1673ffffffffffffffffffffffffffffffffffffffff1681526020019081526020016000205490508091505091905056fe546865206465706f736974656420616d6f756e742069732062656c6f772074686520696e766573746d656e74206d696e696d756d206f6620302e3031204574686572506c6561736520776974686472617720616c6c20696e7665737465642066756e6473206265666f7265206465706f736974696e67506c65617365206465706f7369742066756e647320746f20696e76657374206265666f726520617474656d7074696e6720746f207769746864726177a2646970667358221220acf64273b181022f966694c4cc60dfedddd5a754acae0c5dd60d059dc1b8c5b264736f6c63430007060033",
  "immutableReferences": {},
  "source": "// SPDX-License-Identifier: MIT\r\npragma solidity >=0.6.0 <0.8.0;\r\n\r\nimport \"./Token.sol\";\r\n\r\ncontract bankOfArtiiz {\r\n    Token private _token;\r\n\r\n    // Mappings\r\n    mapping(address => uint256) public depositedEtherBalance;\r\n    mapping(address => uint256) public depositStartTime;\r\n    mapping(address => bool) public currentlyDeposited;\r\n\r\n    // Events\r\n    event Deposit(\r\n        address indexed user,\r\n        uint256 etherAmount,\r\n        uint256 depositTime\r\n    );\r\n\r\n    event Withdraw(\r\n        address indexed user,\r\n        uint256 etherAmount,\r\n        uint256 withdrawalTime,\r\n        uint256 interestPaidOut\r\n    );\r\n\r\n    // pass as constructor argument deployed Token contract\r\n    constructor(Token token) {\r\n        _token = token;\r\n    }\r\n\r\n    function getFundsInvested(address userAddress) public view returns(uint) {\r\n        uint amountInvested = depositedEtherBalance[userAddress];\r\n        return amountInvested;\r\n    }\r\n\r\n    function getCurrentlyAccruedInterest(address userAddress) public view returns(uint) {\r\n        // Local Variables\r\n        uint256 amountInvested = depositedEtherBalance[userAddress];\r\n        uint256 currentTime = block.timestamp;\r\n        \r\n        // Calculate Interest Accrued\r\n        uint256 timeInvested = currentTime - depositStartTime[userAddress];\r\n\r\n        // 31668017 = interest per second for (10% APY) for 0.01 ETH Minimum. So we split up the investment by 0.01 ETH to get per second rate\r\n        uint256 interestPerSecond = 31668017 * (amountInvested / 1e16);\r\n        uint256 interestEarned = interestPerSecond * timeInvested;\r\n\r\n        return interestEarned;\r\n    }\r\n\r\n    function deposit() public payable {\r\n        // Local Variables\r\n        address userAddress = msg.sender;\r\n        uint256 amountDeposited = msg.value;\r\n        uint256 depositTime = block.timestamp;\r\n\r\n        // Checking that the amount is greater than 0.01 ETH and that the user is not currently invested\r\n        // Could alternatively use an if/else loop around the below code for a more human understandable code fragment\r\n        require(\r\n            currentlyDeposited[userAddress] == false,\r\n            \"Please withdraw all invested funds before depositing\"\r\n            // TODO: Improve on this to allow incremental deposits with a reset of the deposit start time to the latest deposit\r\n        );\r\n        require(\r\n            amountDeposited >= 0.01 ether,\r\n            \"The deposited amount is below the investment minimum of 0.01 Ether\"\r\n        );\r\n\r\n        // Adding to map dictionary to increment amount stored in bank\r\n        depositedEtherBalance[userAddress] += amountDeposited;\r\n\r\n        // Set deposit start time to that of the latest deposit\r\n        depositStartTime[userAddress] = depositTime;\r\n\r\n        // Set that the user is currently invested\r\n        currentlyDeposited[userAddress] = true;\r\n\r\n        // Triggering event\r\n        emit Deposit(userAddress, amountDeposited, depositTime);\r\n    }\r\n\r\n    function withdraw() public {\r\n        // Local Variables\r\n        address userAddress = msg.sender;\r\n        uint256 amountWithdrawn = depositedEtherBalance[userAddress];\r\n        uint256 withdrawalTime = block.timestamp;\r\n\r\n        // Checking that the user is currently invested\r\n        // Could alternatively use an if/else loop around the below code for a more human understandable code fragment\r\n        require(\r\n            currentlyDeposited[userAddress] == true,\r\n            \"Please deposit funds to invest before attempting to withdraw\"\r\n            // TODO: Improve on this to allow smaller withdrawals at a time\r\n        );\r\n\r\n        // Calculate Interest Accrued\r\n        uint256 timeInvested = withdrawalTime - depositStartTime[userAddress];\r\n\r\n        // 31668017 = interest per second for (10% APY) for 0.01 ETH Minimum. So we split up the investment by 0.01 ETH to get per second rate\r\n        uint256 interestPerSecond = 31668017 * (amountWithdrawn / 1e16);\r\n        uint256 interestEarned = interestPerSecond * timeInvested;\r\n\r\n        // Send Ether to user\r\n        msg.sender.transfer(amountWithdrawn);\r\n\r\n        // Mint tokens and send as interest to user\r\n        _token.mint(userAddress, interestEarned);\r\n\r\n        // Clear data about how much is invested\r\n        depositedEtherBalance[userAddress] = 0;\r\n        depositStartTime[userAddress] = 0;\r\n        currentlyDeposited[userAddress] = false;\r\n\r\n        // Triggering event\r\n        Withdraw(userAddress, amountWithdrawn, withdrawalTime, interestEarned);\r\n    }\r\n\r\n    function borrow() public payable {\r\n        //check if collateral is >= than 0.01 ETH\r\n        //check if user doesn't have active loan\r\n        //add msg.value to ether collateral\r\n        //calc tokens amount to mint, 50% of msg.value\r\n        //mint&send tokens to user\r\n        //activate borrower's loan status\r\n        //emit event\r\n    }\r\n\r\n    function payOff() public {\r\n        //check if loan is active\r\n        //transfer tokens from user back to the contract\r\n        //calc fee\r\n        //send user's collateral minus fee\r\n        //reset borrower's data\r\n        //emit event\r\n    }\r\n}\r\n",
  "sourcePath": "/Users/artiiz/Git/defi_bank/src/contracts/bankOfArtiiz.sol",
  "compiler": {
    "name": "solc",
    "version": "0.7.6+commit.7338295f.Emscripten.clang"
  },
  "schemaVersion": "3.2.3",
  "updatedAt": "2021-05-20T10:00:33.237Z",
  "networkType": "ethereum",
  "devdoc": {
    "kind": "dev",
    "methods": {},
    "version": 1
  },
  "userdoc": {
    "kind": "user",
    "methods": {},
    "version": 1
  }
}